{
  "abi": [
    {
      "inputs": [
        {
          "internalType": "address",
          "name": "_root",
          "type": "address"
        }
      ],
      "stateMutability": "nonpayable",
      "type": "constructor"
    },
    {
      "inputs": [],
      "name": "AccessControlBadConfirmation",
      "type": "error"
    },
    {
      "inputs": [
        {
          "internalType": "address",
          "name": "account",
          "type": "address"
        },
        {
          "internalType": "bytes32",
          "name": "neededRole",
          "type": "bytes32"
        }
      ],
      "name": "AccessControlUnauthorizedAccount",
      "type": "error"
    },
    {
      "inputs": [],
      "name": "ERC721EnumerableForbiddenBatchMint",
      "type": "error"
    },
    {
      "inputs": [
        {
          "internalType": "address",
          "name": "sender",
          "type": "address"
        },
        {
          "internalType": "uint256",
          "name": "tokenId",
          "type": "uint256"
        },
        {
          "internalType": "address",
          "name": "owner",
          "type": "address"
        }
      ],
      "name": "ERC721IncorrectOwner",
      "type": "error"
    },
    {
      "inputs": [
        {
          "internalType": "address",
          "name": "operator",
          "type": "address"
        },
        {
          "internalType": "uint256",
          "name": "tokenId",
          "type": "uint256"
        }
      ],
      "name": "ERC721InsufficientApproval",
      "type": "error"
    },
    {
      "inputs": [
        {
          "internalType": "address",
          "name": "approver",
          "type": "address"
        }
      ],
      "name": "ERC721InvalidApprover",
      "type": "error"
    },
    {
      "inputs": [
        {
          "internalType": "address",
          "name": "operator",
          "type": "address"
        }
      ],
      "name": "ERC721InvalidOperator",
      "type": "error"
    },
    {
      "inputs": [
        {
          "internalType": "address",
          "name": "owner",
          "type": "address"
        }
      ],
      "name": "ERC721InvalidOwner",
      "type": "error"
    },
    {
      "inputs": [
        {
          "internalType": "address",
          "name": "receiver",
          "type": "address"
        }
      ],
      "name": "ERC721InvalidReceiver",
      "type": "error"
    },
    {
      "inputs": [
        {
          "internalType": "address",
          "name": "sender",
          "type": "address"
        }
      ],
      "name": "ERC721InvalidSender",
      "type": "error"
    },
    {
      "inputs": [
        {
          "internalType": "uint256",
          "name": "tokenId",
          "type": "uint256"
        }
      ],
      "name": "ERC721NonexistentToken",
      "type": "error"
    },
    {
      "inputs": [
        {
          "internalType": "address",
          "name": "owner",
          "type": "address"
        },
        {
          "internalType": "uint256",
          "name": "index",
          "type": "uint256"
        }
      ],
      "name": "ERC721OutOfBoundsIndex",
      "type": "error"
    },
    {
      "inputs": [
        {
          "internalType": "address",
          "name": "owner",
          "type": "address"
        }
      ],
      "name": "OwnableInvalidOwner",
      "type": "error"
    },
    {
      "inputs": [
        {
          "internalType": "address",
          "name": "account",
          "type": "address"
        }
      ],
      "name": "OwnableUnauthorizedAccount",
      "type": "error"
    },
    {
      "anonymous": false,
      "inputs": [
        {
          "indexed": true,
          "internalType": "address",
          "name": "owner",
          "type": "address"
        },
        {
          "indexed": true,
          "internalType": "address",
          "name": "approved",
          "type": "address"
        },
        {
          "indexed": true,
          "internalType": "uint256",
          "name": "tokenId",
          "type": "uint256"
        }
      ],
      "name": "Approval",
      "type": "event"
    },
    {
      "anonymous": false,
      "inputs": [
        {
          "indexed": true,
          "internalType": "address",
          "name": "owner",
          "type": "address"
        },
        {
          "indexed": true,
          "internalType": "address",
          "name": "operator",
          "type": "address"
        },
        {
          "indexed": false,
          "internalType": "bool",
          "name": "approved",
          "type": "bool"
        }
      ],
      "name": "ApprovalForAll",
      "type": "event"
    },
    {
      "anonymous": false,
      "inputs": [
        {
          "indexed": false,
          "internalType": "uint256",
          "name": "_fromTokenId",
          "type": "uint256"
        },
        {
          "indexed": false,
          "internalType": "uint256",
          "name": "_toTokenId",
          "type": "uint256"
        }
      ],
      "name": "BatchMetadataUpdate",
      "type": "event"
    },
    {
      "anonymous": false,
      "inputs": [
        {
          "indexed": false,
          "internalType": "uint256",
          "name": "_tokenId",
          "type": "uint256"
        }
      ],
      "name": "MetadataUpdate",
      "type": "event"
    },
    {
      "anonymous": false,
      "inputs": [
        {
          "indexed": true,
          "internalType": "address",
          "name": "previousOwner",
          "type": "address"
        },
        {
          "indexed": true,
          "internalType": "address",
          "name": "newOwner",
          "type": "address"
        }
      ],
      "name": "OwnershipTransferred",
      "type": "event"
    },
    {
      "anonymous": false,
      "inputs": [
        {
          "indexed": true,
          "internalType": "bytes32",
          "name": "role",
          "type": "bytes32"
        },
        {
          "indexed": true,
          "internalType": "bytes32",
          "name": "previousAdminRole",
          "type": "bytes32"
        },
        {
          "indexed": true,
          "internalType": "bytes32",
          "name": "newAdminRole",
          "type": "bytes32"
        }
      ],
      "name": "RoleAdminChanged",
      "type": "event"
    },
    {
      "anonymous": false,
      "inputs": [
        {
          "indexed": true,
          "internalType": "bytes32",
          "name": "role",
          "type": "bytes32"
        },
        {
          "indexed": true,
          "internalType": "address",
          "name": "account",
          "type": "address"
        },
        {
          "indexed": true,
          "internalType": "address",
          "name": "sender",
          "type": "address"
        }
      ],
      "name": "RoleGranted",
      "type": "event"
    },
    {
      "anonymous": false,
      "inputs": [
        {
          "indexed": true,
          "internalType": "bytes32",
          "name": "role",
          "type": "bytes32"
        },
        {
          "indexed": true,
          "internalType": "address",
          "name": "account",
          "type": "address"
        },
        {
          "indexed": true,
          "internalType": "address",
          "name": "sender",
          "type": "address"
        }
      ],
      "name": "RoleRevoked",
      "type": "event"
    },
    {
      "anonymous": false,
      "inputs": [
        {
          "indexed": true,
          "internalType": "address",
          "name": "from",
          "type": "address"
        },
        {
          "indexed": true,
          "internalType": "address",
          "name": "to",
          "type": "address"
        },
        {
          "indexed": true,
          "internalType": "uint256",
          "name": "tokenId",
          "type": "uint256"
        }
      ],
      "name": "Transfer",
      "type": "event"
    },
    {
      "inputs": [],
      "name": "DEFAULT_ADMIN_ROLE",
      "outputs": [
        {
          "internalType": "bytes32",
          "name": "",
          "type": "bytes32"
        }
      ],
      "stateMutability": "view",
      "type": "function"
    },
    {
      "inputs": [],
      "name": "Retailers",
      "outputs": [
        {
          "internalType": "bytes32",
          "name": "",
          "type": "bytes32"
        }
      ],
      "stateMutability": "view",
      "type": "function"
    },
    {
      "inputs": [
        {
          "internalType": "address",
          "name": "_manager",
          "type": "address"
        }
      ],
      "name": "addManager",
      "outputs": [],
      "stateMutability": "nonpayable",
      "type": "function"
    },
    {
      "inputs": [
        {
          "internalType": "uint256",
          "name": "_tokenId",
          "type": "uint256"
        },
        {
          "internalType": "string",
          "name": "_description",
          "type": "string"
        }
      ],
      "name": "addRepair",
      "outputs": [],
      "stateMutability": "nonpayable",
      "type": "function"
    },
    {
      "inputs": [
        {
          "internalType": "address",
          "name": "_retailer",
          "type": "address"
        }
      ],
      "name": "addRetail",
      "outputs": [],
      "stateMutability": "nonpayable",
      "type": "function"
    },
    {
      "inputs": [
        {
          "internalType": "address",
          "name": "to",
          "type": "address"
        },
        {
          "internalType": "uint256",
          "name": "tokenId",
          "type": "uint256"
        }
      ],
      "name": "approve",
      "outputs": [],
      "stateMutability": "nonpayable",
      "type": "function"
    },
    {
      "inputs": [
        {
          "internalType": "address",
          "name": "owner",
          "type": "address"
        }
      ],
      "name": "balanceOf",
      "outputs": [
        {
          "internalType": "uint256",
          "name": "",
          "type": "uint256"
        }
      ],
      "stateMutability": "view",
      "type": "function"
    },
    {
      "inputs": [
        {
          "internalType": "uint256",
          "name": "tokenId",
          "type": "uint256"
        }
      ],
      "name": "burn",
      "outputs": [],
      "stateMutability": "nonpayable",
      "type": "function"
    },
    {
      "inputs": [
        {
          "internalType": "address",
          "name": "_to",
          "type": "address"
        }
      ],
      "name": "changeOwner",
      "outputs": [],
      "stateMutability": "nonpayable",
      "type": "function"
    },
    {
      "inputs": [
        {
          "internalType": "uint256",
          "name": "",
          "type": "uint256"
        }
      ],
      "name": "creationTime",
      "outputs": [
        {
          "internalType": "uint256",
          "name": "",
          "type": "uint256"
        }
      ],
      "stateMutability": "view",
      "type": "function"
    },
    {
      "inputs": [
        {
          "internalType": "uint256",
          "name": "tokenId",
          "type": "uint256"
        }
      ],
      "name": "getApproved",
      "outputs": [
        {
          "internalType": "address",
          "name": "",
          "type": "address"
        }
      ],
      "stateMutability": "view",
      "type": "function"
    },
    {
      "inputs": [
        {
          "internalType": "bytes32",
          "name": "role",
          "type": "bytes32"
        }
      ],
      "name": "getRoleAdmin",
      "outputs": [
        {
          "internalType": "bytes32",
          "name": "",
          "type": "bytes32"
        }
      ],
      "stateMutability": "view",
      "type": "function"
    },
    {
      "inputs": [
        {
          "internalType": "bytes32",
          "name": "role",
          "type": "bytes32"
        },
        {
          "internalType": "address",
          "name": "account",
          "type": "address"
        }
      ],
      "name": "grantRole",
      "outputs": [],
      "stateMutability": "nonpayable",
      "type": "function"
    },
    {
      "inputs": [
        {
          "internalType": "bytes32",
          "name": "role",
          "type": "bytes32"
        },
        {
          "internalType": "address",
          "name": "account",
          "type": "address"
        }
      ],
      "name": "hasRole",
      "outputs": [
        {
          "internalType": "bool",
          "name": "",
          "type": "bool"
        }
      ],
      "stateMutability": "view",
      "type": "function"
    },
    {
      "inputs": [
        {
          "internalType": "address",
          "name": "_owner",
          "type": "address"
        }
      ],
      "name": "hasValidWarranty",
      "outputs": [
        {
          "internalType": "bool",
          "name": "",
          "type": "bool"
        }
      ],
      "stateMutability": "view",
      "type": "function"
    },
    {
      "inputs": [
        {
          "internalType": "address",
          "name": "owner",
          "type": "address"
        },
        {
          "internalType": "address",
          "name": "operator",
          "type": "address"
        }
      ],
      "name": "isApprovedForAll",
      "outputs": [
        {
          "internalType": "bool",
          "name": "",
          "type": "bool"
        }
      ],
      "stateMutability": "view",
      "type": "function"
    },
    {
      "inputs": [
        {
          "internalType": "address",
          "name": "_to",
          "type": "address"
        },
        {
          "internalType": "string",
          "name": "uri",
          "type": "string"
        }
      ],
      "name": "mint",
      "outputs": [
        {
          "internalType": "uint256",
          "name": "",
          "type": "uint256"
        }
      ],
      "stateMutability": "nonpayable",
      "type": "function"
    },
    {
      "inputs": [],
      "name": "name",
      "outputs": [
        {
          "internalType": "string",
          "name": "",
          "type": "string"
        }
      ],
      "stateMutability": "view",
      "type": "function"
    },
    {
      "inputs": [],
      "name": "owner",
      "outputs": [
        {
          "internalType": "address",
          "name": "",
          "type": "address"
        }
      ],
      "stateMutability": "view",
      "type": "function"
    },
    {
      "inputs": [
        {
          "internalType": "uint256",
          "name": "tokenId",
          "type": "uint256"
        }
      ],
      "name": "ownerOf",
      "outputs": [
        {
          "internalType": "address",
          "name": "",
          "type": "address"
        }
      ],
      "stateMutability": "view",
      "type": "function"
    },
    {
      "inputs": [
        {
          "internalType": "address",
          "name": "_retailer",
          "type": "address"
        }
      ],
      "name": "removeRetai",
      "outputs": [],
      "stateMutability": "nonpayable",
      "type": "function"
    },
    {
      "inputs": [
        {
          "internalType": "address",
          "name": "_manager",
          "type": "address"
        }
      ],
      "name": "renounceManager",
      "outputs": [
        {
          "internalType": "bool",
          "name": "",
          "type": "bool"
        }
      ],
      "stateMutability": "nonpayable",
      "type": "function"
    },
    {
      "inputs": [],
      "name": "renounceOwnership",
      "outputs": [],
      "stateMutability": "nonpayable",
      "type": "function"
    },
    {
      "inputs": [
        {
          "internalType": "bytes32",
          "name": "role",
          "type": "bytes32"
        },
        {
          "internalType": "address",
          "name": "callerConfirmation",
          "type": "address"
        }
      ],
      "name": "renounceRole",
      "outputs": [],
      "stateMutability": "nonpayable",
      "type": "function"
    },
    {
      "inputs": [
        {
          "internalType": "uint256",
          "name": "",
          "type": "uint256"
        },
        {
          "internalType": "uint256",
          "name": "",
          "type": "uint256"
        }
      ],
      "name": "repairHistory",
      "outputs": [
        {
          "internalType": "uint256",
          "name": "timestamp",
          "type": "uint256"
        },
        {
          "internalType": "string",
          "name": "description",
          "type": "string"
        }
      ],
      "stateMutability": "view",
      "type": "function"
    },
    {
      "inputs": [
        {
          "internalType": "bytes32",
          "name": "role",
          "type": "bytes32"
        },
        {
          "internalType": "address",
          "name": "account",
          "type": "address"
        }
      ],
      "name": "revokeRole",
      "outputs": [],
      "stateMutability": "nonpayable",
      "type": "function"
    },
    {
      "inputs": [
        {
          "internalType": "address",
          "name": "from",
          "type": "address"
        },
        {
          "internalType": "address",
          "name": "to",
          "type": "address"
        },
        {
          "internalType": "uint256",
          "name": "tokenId",
          "type": "uint256"
        }
      ],
      "name": "safeTransferFrom",
      "outputs": [],
      "stateMutability": "nonpayable",
      "type": "function"
    },
    {
      "inputs": [
        {
          "internalType": "address",
          "name": "from",
          "type": "address"
        },
        {
          "internalType": "address",
          "name": "to",
          "type": "address"
        },
        {
          "internalType": "uint256",
          "name": "tokenId",
          "type": "uint256"
        },
        {
          "internalType": "bytes",
          "name": "data",
          "type": "bytes"
        }
      ],
      "name": "safeTransferFrom",
      "outputs": [],
      "stateMutability": "nonpayable",
      "type": "function"
    },
    {
      "inputs": [
        {
          "internalType": "address",
          "name": "operator",
          "type": "address"
        },
        {
          "internalType": "bool",
          "name": "approved",
          "type": "bool"
        }
      ],
      "name": "setApprovalForAll",
      "outputs": [],
      "stateMutability": "nonpayable",
      "type": "function"
    },
    {
      "inputs": [
        {
          "internalType": "bytes4",
          "name": "interfaceId",
          "type": "bytes4"
        }
      ],
      "name": "supportsInterface",
      "outputs": [
        {
          "internalType": "bool",
          "name": "",
          "type": "bool"
        }
      ],
      "stateMutability": "view",
      "type": "function"
    },
    {
      "inputs": [],
      "name": "symbol",
      "outputs": [
        {
          "internalType": "string",
          "name": "",
          "type": "string"
        }
      ],
      "stateMutability": "view",
      "type": "function"
    },
    {
      "inputs": [
        {
          "internalType": "uint256",
          "name": "index",
          "type": "uint256"
        }
      ],
      "name": "tokenByIndex",
      "outputs": [
        {
          "internalType": "uint256",
          "name": "",
          "type": "uint256"
        }
      ],
      "stateMutability": "view",
      "type": "function"
    },
    {
      "inputs": [
        {
          "internalType": "address",
          "name": "owner",
          "type": "address"
        },
        {
          "internalType": "uint256",
          "name": "index",
          "type": "uint256"
        }
      ],
      "name": "tokenOfOwnerByIndex",
      "outputs": [
        {
          "internalType": "uint256",
          "name": "",
          "type": "uint256"
        }
      ],
      "stateMutability": "view",
      "type": "function"
    },
    {
      "inputs": [
        {
          "internalType": "uint256",
          "name": "tokenId",
          "type": "uint256"
        }
      ],
      "name": "tokenURI",
      "outputs": [
        {
          "internalType": "string",
          "name": "",
          "type": "string"
        }
      ],
      "stateMutability": "view",
      "type": "function"
    },
    {
      "inputs": [],
      "name": "totalSupply",
      "outputs": [
        {
          "internalType": "uint256",
          "name": "",
          "type": "uint256"
        }
      ],
      "stateMutability": "view",
      "type": "function"
    },
    {
      "inputs": [
        {
          "internalType": "address",
          "name": "_to",
          "type": "address"
        },
        {
          "internalType": "uint256",
          "name": "_tokenId",
          "type": "uint256"
        }
      ],
      "name": "transfer",
      "outputs": [],
      "stateMutability": "nonpayable",
      "type": "function"
    },
    {
      "inputs": [
        {
          "internalType": "address",
          "name": "from",
          "type": "address"
        },
        {
          "internalType": "address",
          "name": "to",
          "type": "address"
        },
        {
          "internalType": "uint256",
          "name": "tokenId",
          "type": "uint256"
        }
      ],
      "name": "transferFrom",
      "outputs": [],
      "stateMutability": "nonpayable",
      "type": "function"
    },
    {
      "inputs": [
        {
          "internalType": "address",
          "name": "newOwner",
          "type": "address"
        }
      ],
      "name": "transferOwnership",
      "outputs": [],
      "stateMutability": "nonpayable",
      "type": "function"
    }
  ],
  "bytecode": {
    "object": "0x6080604052600e805460ff191660011790553480156200001e57600080fd5b50604051620028683803806200286883398101604081905262000041916200030c565b806040518060400160405280600b81526020016a15d85c9c985b9d1e53919560aa1b815250604051806040016040528060048152602001632ba0a92960e11b8152508160009081620000949190620003e5565b506001620000a38282620003e5565b5050506001600160a01b038116620000d657604051631e4fbdf760e01b8152600060048201526024015b60405180910390fd5b620000e18162000123565b50620000ef60008262000175565b6200011c7ffd6aab976338b2900d6335246b1bf06c6f74506be74efaf01124b948d350dcea6000620001a4565b50620004b1565b600b80546001600160a01b038381166001600160a01b0319831681179093556040519116919082907f8be0079c531659141344cd1fd0a4f28419497f9722a3daafe3b4186f6b6457e090600090a35050565b6000828152600c60205260409020600101546200019281620001ef565b6200019e8383620001fe565b50505050565b6000828152600c6020526040808220600101805490849055905190918391839186917fbd79b86ffe0ab8e8776151514217cd7cacd52c909f66475c3af44e129f0b00ff9190a4505050565b620001fb8133620002b1565b50565b6000828152600c602090815260408083206001600160a01b038516845290915281205460ff16620002a7576000838152600c602090815260408083206001600160a01b03861684529091529020805460ff191660011790556200025e3390565b6001600160a01b0316826001600160a01b0316847f2f8788117e7eff1d82e926ec794901d17c78024a50270940304540a733656f0d60405160405180910390a4506001620002ab565b5060005b92915050565b6000828152600c602090815260408083206001600160a01b038516845290915290205460ff16620003085760405163e2517d3f60e01b81526001600160a01b038216600482015260248101839052604401620000cd565b5050565b6000602082840312156200031f57600080fd5b81516001600160a01b03811681146200033757600080fd5b9392505050565b634e487b7160e01b600052604160045260246000fd5b600181811c908216806200036957607f821691505b6020821081036200038a57634e487b7160e01b600052602260045260246000fd5b50919050565b601f821115620003e0576000816000526020600020601f850160051c81016020861015620003bb5750805b601f850160051c820191505b81811015620003dc57828155600101620003c7565b5050505b505050565b81516001600160401b038111156200040157620004016200033e565b620004198162000412845462000354565b8462000390565b602080601f831160018114620004515760008415620004385750858301515b600019600386901b1c1916600185901b178555620003dc565b600085815260208120601f198616915b82811015620004825788860151825594840194600190910190840162000461565b5085821015620004a15787850151600019600388901b60f8161c191681555b5050505050600190811b01905550565b6123a780620004c16000396000f3fe608060405234801561001057600080fd5b50600436106102325760003560e01c8063888990b111610130578063ae997d70116100b8578063d0def5211161007c578063d0def521146104d7578063d547741f146104ea578063d5ae33e2146104fd578063e985e9c51461051d578063f2fde38b1461053057600080fd5b8063ae997d7014610478578063b88d4fde1461048b578063c87b56dd1461049e578063ce53f6f8146104b1578063cf0273c3146104c457600080fd5b806395d89b41116100ff57806395d89b411461042f578063a217fddf14610437578063a22cb4651461043f578063a6f9dae114610452578063a9059cbb1461046557600080fd5b8063888990b1146103e55780638c4d5f7a146103f85780638da5cb5b1461040b57806391d148541461041c57600080fd5b80632f2ff15d116101be5780634f6ccce7116101825780634f6ccce71461038f5780636352211e146103a257806370a08231146103b5578063715018a6146103c857806387a1d418146103d057600080fd5b80632f2ff15d146103305780632f745c591461034357806336568abe1461035657806342842e0e1461036957806342966c681461037c57600080fd5b806318160ddd1161020557806318160ddd146102b457806323b872dd146102c6578063248a9ca3146102d95780632d06177a146102fc5780632d08f43c1461030f57600080fd5b806301ffc9a71461023757806306fdde031461025f578063081812fc14610274578063095ea7b31461029f575b600080fd5b61024a610245366004611d71565b610543565b60405190151581526020015b60405180910390f35b610267610554565b6040516102569190611dde565b610287610282366004611df1565b6105e6565b6040516001600160a01b039091168152602001610256565b6102b26102ad366004611e21565b61060f565b005b6008545b604051908152602001610256565b6102b26102d4366004611e4b565b61061e565b6102b86102e7366004611df1565b6000908152600c602052604090206001015490565b6102b261030a366004611e87565b6106ae565b61032261031d366004611ea2565b6106c4565b604051610256929190611ec4565b6102b261033e366004611edd565b61078d565b6102b8610351366004611e21565b6107b2565b6102b2610364366004611edd565b610817565b6102b2610377366004611e4b565b61084f565b6102b261038a366004611df1565b61086a565b6102b861039d366004611df1565b610876565b6102876103b0366004611df1565b6108cf565b6102b86103c3366004611e87565b6108da565b6102b2610922565b6102b860008051602061235283398151915281565b61024a6103f3366004611e87565b610936565b6102b2610406366004611e87565b6109a6565b600b546001600160a01b0316610287565b61024a61042a366004611edd565b610a0f565b610267610a3a565b6102b8600081565b6102b261044d366004611f09565b610a49565b6102b2610460366004611e87565b610a54565b6102b2610473366004611e21565b610a65565b61024a610486366004611e87565b610b97565b6102b2610499366004611fd1565b610bbc565b6102676104ac366004611df1565b610bd3565b6102b26104bf36600461206d565b610bde565b6102b26104d2366004611e87565b610d92565b6102b86104e53660046120b4565b610dfb565b6102b26104f8366004611edd565b610ea5565b6102b861050b366004611df1565b600d6020526000908152604090205481565b61024a61052b3660046120ec565b610eca565b6102b261053e366004611e87565b610ef8565b600061054e82610f33565b92915050565b60606000805461056390612116565b80601f016020809104026020016040519081016040528092919081815260200182805461058f90612116565b80156105dc5780601f106105b1576101008083540402835291602001916105dc565b820191906000526020600020905b8154815290600101906020018083116105bf57829003601f168201915b5050505050905090565b60006105f182610f58565b506000828152600460205260409020546001600160a01b031661054e565b61061a828233610f91565b5050565b6001600160a01b03821661064d57604051633250574960e11b8152600060048201526024015b60405180910390fd5b600061065a838333610f9e565b9050836001600160a01b0316816001600160a01b0316146106a8576040516364283d7b60e01b81526001600160a01b0380861660048301526024820184905282166044820152606401610644565b50505050565b6106b6610fb3565b6106c160008261078d565b50565b600f60205281600052604060002081815481106106e057600080fd5b90600052602060002090600202016000915091505080600001549080600101805461070a90612116565b80601f016020809104026020016040519081016040528092919081815260200182805461073690612116565b80156107835780601f1061075857610100808354040283529160200191610783565b820191906000526020600020905b81548152906001019060200180831161076657829003601f168201915b5050505050905082565b6000828152600c60205260409020600101546107a881610fe0565b6106a88383610fea565b60006107bd836108da565b82106107ee5760405163295f44f760e21b81526001600160a01b038416600482015260248101839052604401610644565b506001600160a01b03919091166000908152600660209081526040808320938352929052205490565b6001600160a01b03811633146108405760405163334bd91960e11b815260040160405180910390fd5b61084a828261107e565b505050565b61084a83838360405180602001604052806000815250610bbc565b61061a60008233610f9e565b600061088160085490565b82106108aa5760405163295f44f760e21b81526000600482015260248101839052604401610644565b600882815481106108bd576108bd612150565b90600052602060002001549050919050565b600061054e82610f58565b60006001600160a01b038216610906576040516322718ad960e21b815260006004820152602401610644565b506001600160a01b031660009081526003602052604090205490565b61092a610fb3565b61093460006110eb565b565b600080610942836108da565b9050806000036109555750600092915050565b60006109668461035160018561217c565b6000818152600d60205260409020549091506301dfe200610987818361218f565b42101561099a5750600195945050505050565b50600095945050505050565b6109b1600033610a0f565b6109f75760405162461bcd60e51b81526020600482015260176024820152762932b9ba3934b1ba32b2103a379026b0b730b3b2b9399760491b6044820152606401610644565b6106c160008051602061235283398151915282610ea5565b6000918252600c602090815260408084206001600160a01b0393909316845291905290205460ff1690565b60606001805461056390612116565b61061a33838361113d565b610a5c610fb3565b6106c181610ef8565b6000610a70826108cf565b9050610a7b826111dc565b610abe5760405162461bcd60e51b8152602060048201526014602482015273151bdad95b88191bd95cc81b9bdd08195e1a5cdd60621b6044820152606401610644565b610ac733610936565b610b0f5760405162461bcd60e51b8152602060048201526019602482015278165bdd5c8815d85c9c985b9d1e481a185cc8195e1c1a5c9959603a1b6044820152606401610644565b610b1a8133846111ef565b610b8c5760405162461bcd60e51b815260206004820152603960248201527f43616c6c6572206973206e6f7420746865206f776e6572206f7220617070726f60448201527f76656420746f207472616e736665722074686520746f6b656e000000000000006064820152608401610644565b61084a338484611252565b6000610ba1610fb3565b610bac600083610817565b61054e600083610a0f565b919050565b610bc784848461061e565b6106a884848484611302565b606061054e8261142b565b600080516020612352833981519152610bf681610fe0565b6000610c01846108cf565b9050610c0c846111dc565b610c4f5760405162461bcd60e51b8152602060048201526014602482015273151bdad95b88191bd95cc81b9bdd08195e1a5cdd60621b6044820152606401610644565b610c5833610936565b610ca05760405162461bcd60e51b8152602060048201526019602482015278165bdd5c8815d85c9c985b9d1e481a185cc8195e1c1a5c9959603a1b6044820152606401610644565b610cab8133866111ef565b80610cc95750610cc960008051602061235283398151915233610a0f565b610d3b5760405162461bcd60e51b815260206004820152603760248201527f43616c6c6572206973206e6f7420746865206f776e6572206f7220617070726f60448201527f76656420746f207570646174652074686520746f6b656e0000000000000000006064820152608401610644565b6000848152600f60209081526040808320815180830190925242825281830187815281546001818101845592865293909420825160029094020192835592519092820190610d8990826121f2565b50505050505050565b610d9d600033610a0f565b610de35760405162461bcd60e51b81526020600482015260176024820152762932b9ba3934b1ba32b2103a379026b0b730b3b2b9399760491b6044820152606401610644565b6106c16000805160206123528339815191528261078d565b6000610e1560008051602061235283398151915233610a0f565b610e615760405162461bcd60e51b815260206004820152601860248201527f5265737472696374656420746f2052657461696c6572732e00000000000000006044820152606401610644565b6000610e6c60085490565b610e7790600161218f565b6000818152600d602052604090204290559050610e948482611534565b610e9e8184611599565b9392505050565b6000828152600c6020526040902060010154610ec081610fe0565b6106a8838361107e565b6001600160a01b03918216600090815260056020908152604080832093909416825291909152205460ff1690565b610f00610fb3565b6001600160a01b038116610f2a57604051631e4fbdf760e01b815260006004820152602401610644565b6106c1816110eb565b60006001600160e01b03198216637965db0b60e01b148061054e575061054e826115e9565b6000818152600260205260408120546001600160a01b03168061054e57604051637e27328960e01b815260048101849052602401610644565b61084a838383600161160e565b6000610fab848484611714565b949350505050565b600b546001600160a01b031633146109345760405163118cdaa760e01b8152336004820152602401610644565b6106c181336117e1565b6000610ff68383610a0f565b611076576000838152600c602090815260408083206001600160a01b03861684529091529020805460ff1916600117905561102e3390565b6001600160a01b0316826001600160a01b0316847f2f8788117e7eff1d82e926ec794901d17c78024a50270940304540a733656f0d60405160405180910390a450600161054e565b50600061054e565b600061108a8383610a0f565b15611076576000838152600c602090815260408083206001600160a01b0386168085529252808320805460ff1916905551339286917ff6391f5c32d9c69d2a47ea670b442974b53935d1edc7fd64eb21e047a839171b9190a450600161054e565b600b80546001600160a01b038381166001600160a01b0319831681179093556040519116919082907f8be0079c531659141344cd1fd0a4f28419497f9722a3daafe3b4186f6b6457e090600090a35050565b6001600160a01b03821661116f57604051630b61174360e31b81526001600160a01b0383166004820152602401610644565b6001600160a01b03838116600081815260056020908152604080832094871680845294825291829020805460ff191686151590811790915591519182527f17307eab39ab6107e8899845ad3d59bd9653f200f220920489ca2b5937696c31910160405180910390a3505050565b60006111e760085490565b909110919050565b60006001600160a01b03831615801590610fab5750826001600160a01b0316846001600160a01b0316148061122957506112298484610eca565b80610fab5750506000908152600460205260409020546001600160a01b03908116911614919050565b6001600160a01b03821661127c57604051633250574960e11b815260006004820152602401610644565b600061128a83836000610f9e565b90506001600160a01b0381166112b657604051637e27328960e01b815260048101839052602401610644565b836001600160a01b0316816001600160a01b0316146106a8576040516364283d7b60e01b81526001600160a01b0380861660048301526024820184905282166044820152606401610644565b6001600160a01b0383163b156106a857604051630a85bd0160e11b81526001600160a01b0384169063150b7a02906113449033908890879087906004016122b2565b6020604051808303816000875af192505050801561137f575060408051601f3d908101601f1916820190925261137c918101906122ef565b60015b6113e8573d8080156113ad576040519150601f19603f3d011682016040523d82523d6000602084013e6113b2565b606091505b5080516000036113e057604051633250574960e11b81526001600160a01b0385166004820152602401610644565b805181602001fd5b6001600160e01b03198116630a85bd0160e11b1461142457604051633250574960e11b81526001600160a01b0385166004820152602401610644565b5050505050565b606061143682610f58565b506000828152600a60205260408120805461145090612116565b80601f016020809104026020016040519081016040528092919081815260200182805461147c90612116565b80156114c95780601f1061149e576101008083540402835291602001916114c9565b820191906000526020600020905b8154815290600101906020018083116114ac57829003601f168201915b5050505050905060006114e760408051602081019091526000815290565b905080516000036114f9575092915050565b81511561152b57808260405160200161151392919061230c565b60405160208183030381529060405292505050919050565b610fab8461181a565b6001600160a01b03821661155e57604051633250574960e11b815260006004820152602401610644565b600061156c83836000610f9e565b90506001600160a01b0381161561084a576040516339e3563760e11b815260006004820152602401610644565b6000828152600a602052604090206115b182826121f2565b506040518281527ff8e1a15aba9398e019f0b49df1a4fde98ee17ae345cb5f6b5e2c27f5033e8ce79060200160405180910390a15050565b60006001600160e01b03198216632483248360e11b148061054e575061054e8261188e565b808061162257506001600160a01b03821615155b156116e457600061163284610f58565b90506001600160a01b0383161580159061165e5750826001600160a01b0316816001600160a01b031614155b8015611671575061166f8184610eca565b155b1561169a5760405163a9fbf51f60e01b81526001600160a01b0384166004820152602401610644565b81156116e25783856001600160a01b0316826001600160a01b03167f8c5be1e5ebec7d5bd14f71427d1e84f3dd0314c0f7b2291e5b200ac8c7c3b92560405160405180910390a45b505b5050600090815260046020526040902080546001600160a01b0319166001600160a01b0392909216919091179055565b6000806117228585856118b3565b90506001600160a01b03811661177f5761177a84600880546000838152600960205260408120829055600182018355919091527ff3f7a9fe364faab93b216da50a3214154f22a0a2b415b23a84c8169e8b636ee30155565b6117a2565b846001600160a01b0316816001600160a01b0316146117a2576117a281856119ac565b6001600160a01b0385166117be576117b984611a3d565b610fab565b846001600160a01b0316816001600160a01b031614610fab57610fab8585611aec565b6117eb8282610a0f565b61061a5760405163e2517d3f60e01b81526001600160a01b038216600482015260248101839052604401610644565b606061182582610f58565b50600061183d60408051602081019091526000815290565b9050600081511161185d5760405180602001604052806000815250610e9e565b8061186784611b3c565b60405160200161187892919061230c565b6040516020818303038152906040529392505050565b60006001600160e01b0319821663780e9d6360e01b148061054e575061054e82611bcf565b6000828152600260205260408120546001600160a01b03908116908316156118e0576118e0818486611c1f565b6001600160a01b0381161561191e576118fd60008560008061160e565b6001600160a01b038116600090815260036020526040902080546000190190555b6001600160a01b0385161561194d576001600160a01b0385166000908152600360205260409020805460010190555b60008481526002602052604080822080546001600160a01b0319166001600160a01b0389811691821790925591518793918516917fddf252ad1be2c89b69c2b068fc378daa952ba7f163c4a11628f55a4df523b3ef91a4949350505050565b60006119b7836108da565b600083815260076020526040902054909150808214611a0a576001600160a01b03841660009081526006602090815260408083208584528252808320548484528184208190558352600790915290208190555b5060009182526007602090815260408084208490556001600160a01b039094168352600681528383209183525290812055565b600854600090611a4f9060019061217c565b60008381526009602052604081205460088054939450909284908110611a7757611a77612150565b906000526020600020015490508060088381548110611a9857611a98612150565b6000918252602080832090910192909255828152600990915260408082208490558582528120556008805480611ad057611ad061233b565b6001900381819060005260206000200160009055905550505050565b60006001611af9846108da565b611b03919061217c565b6001600160a01b039093166000908152600660209081526040808320868452825280832085905593825260079052919091209190915550565b60606000611b4983611c83565b600101905060008167ffffffffffffffff811115611b6957611b69611f45565b6040519080825280601f01601f191660200182016040528015611b93576020820181803683370190505b5090508181016020015b600019016f181899199a1a9b1b9c1cb0b131b232b360811b600a86061a8153600a8504945084611b9d57509392505050565b60006001600160e01b031982166380ac58cd60e01b1480611c0057506001600160e01b03198216635b5e139f60e01b145b8061054e57506301ffc9a760e01b6001600160e01b031983161461054e565b611c2a8383836111ef565b61084a576001600160a01b038316611c5857604051637e27328960e01b815260048101829052602401610644565b60405163177e802f60e01b81526001600160a01b038316600482015260248101829052604401610644565b60008072184f03e93ff9f4daa797ed6e38ed64bf6a1f0160401b8310611cc25772184f03e93ff9f4daa797ed6e38ed64bf6a1f0160401b830492506040015b6d04ee2d6d415b85acef81000000008310611cee576d04ee2d6d415b85acef8100000000830492506020015b662386f26fc100008310611d0c57662386f26fc10000830492506010015b6305f5e1008310611d24576305f5e100830492506008015b6127108310611d3857612710830492506004015b60648310611d4a576064830492506002015b600a831061054e5760010192915050565b6001600160e01b0319811681146106c157600080fd5b600060208284031215611d8357600080fd5b8135610e9e81611d5b565b60005b83811015611da9578181015183820152602001611d91565b50506000910152565b60008151808452611dca816020860160208601611d8e565b601f01601f19169290920160200192915050565b602081526000610e9e6020830184611db2565b600060208284031215611e0357600080fd5b5035919050565b80356001600160a01b0381168114610bb757600080fd5b60008060408385031215611e3457600080fd5b611e3d83611e0a565b946020939093013593505050565b600080600060608486031215611e6057600080fd5b611e6984611e0a565b9250611e7760208501611e0a565b9150604084013590509250925092565b600060208284031215611e9957600080fd5b610e9e82611e0a565b60008060408385031215611eb557600080fd5b50508035926020909101359150565b828152604060208201526000610fab6040830184611db2565b60008060408385031215611ef057600080fd5b82359150611f0060208401611e0a565b90509250929050565b60008060408385031215611f1c57600080fd5b611f2583611e0a565b915060208301358015158114611f3a57600080fd5b809150509250929050565b634e487b7160e01b600052604160045260246000fd5b600067ffffffffffffffff80841115611f7657611f76611f45565b604051601f8501601f19908116603f01168101908282118183101715611f9e57611f9e611f45565b81604052809350858152868686011115611fb757600080fd5b858560208301376000602087830101525050509392505050565b60008060008060808587031215611fe757600080fd5b611ff085611e0a565b9350611ffe60208601611e0a565b925060408501359150606085013567ffffffffffffffff81111561202157600080fd5b8501601f8101871361203257600080fd5b61204187823560208401611f5b565b91505092959194509250565b600082601f83011261205e57600080fd5b610e9e83833560208501611f5b565b6000806040838503121561208057600080fd5b82359150602083013567ffffffffffffffff81111561209e57600080fd5b6120aa8582860161204d565b9150509250929050565b600080604083850312156120c757600080fd5b6120d083611e0a565b9150602083013567ffffffffffffffff81111561209e57600080fd5b600080604083850312156120ff57600080fd5b61210883611e0a565b9150611f0060208401611e0a565b600181811c9082168061212a57607f821691505b60208210810361214a57634e487b7160e01b600052602260045260246000fd5b50919050565b634e487b7160e01b600052603260045260246000fd5b634e487b7160e01b600052601160045260246000fd5b8181038181111561054e5761054e612166565b8082018082111561054e5761054e612166565b601f82111561084a576000816000526020600020601f850160051c810160208610156121cb5750805b601f850160051c820191505b818110156121ea578281556001016121d7565b505050505050565b815167ffffffffffffffff81111561220c5761220c611f45565b6122208161221a8454612116565b846121a2565b602080601f831160018114612255576000841561223d5750858301515b600019600386901b1c1916600185901b1785556121ea565b600085815260208120601f198616915b8281101561228457888601518255948401946001909101908401612265565b50858210156122a25787850151600019600388901b60f8161c191681555b5050505050600190811b01905550565b6001600160a01b03858116825284166020820152604081018390526080606082018190526000906122e590830184611db2565b9695505050505050565b60006020828403121561230157600080fd5b8151610e9e81611d5b565b6000835161231e818460208801611d8e565b835190830190612332818360208801611d8e565b01949350505050565b634e487b7160e01b600052603160045260246000fdfefd6aab976338b2900d6335246b1bf06c6f74506be74efaf01124b948d350dceaa26469706673582212205f8109499130b944611c88e63544e7be68a626591c821a40d8b4bc6961627f2264736f6c63430008160033",
    "linkReferences": {}
  },
  "methodIdentifiers": {
    "DEFAULT_ADMIN_ROLE()": "a217fddf",
    "Retailers()": "87a1d418",
    "addManager(address)": "2d06177a",
    "addRepair(uint256,string)": "ce53f6f8",
    "addRetail(address)": "cf0273c3",
    "approve(address,uint256)": "095ea7b3",
    "balanceOf(address)": "70a08231",
    "burn(uint256)": "42966c68",
    "changeOwner(address)": "a6f9dae1",
    "creationTime(uint256)": "d5ae33e2",
    "getApproved(uint256)": "081812fc",
    "getRoleAdmin(bytes32)": "248a9ca3",
    "grantRole(bytes32,address)": "2f2ff15d",
    "hasRole(bytes32,address)": "91d14854",
    "hasValidWarranty(address)": "888990b1",
    "isApprovedForAll(address,address)": "e985e9c5",
    "mint(address,string)": "d0def521",
    "name()": "06fdde03",
    "owner()": "8da5cb5b",
    "ownerOf(uint256)": "6352211e",
    "removeRetai(address)": "8c4d5f7a",
    "renounceManager(address)": "ae997d70",
    "renounceOwnership()": "715018a6",
    "renounceRole(bytes32,address)": "36568abe",
    "repairHistory(uint256,uint256)": "2d08f43c",
    "revokeRole(bytes32,address)": "d547741f",
    "safeTransferFrom(address,address,uint256)": "42842e0e",
    "safeTransferFrom(address,address,uint256,bytes)": "b88d4fde",
    "setApprovalForAll(address,bool)": "a22cb465",
    "supportsInterface(bytes4)": "01ffc9a7",
    "symbol()": "95d89b41",
    "tokenByIndex(uint256)": "4f6ccce7",
    "tokenOfOwnerByIndex(address,uint256)": "2f745c59",
    "tokenURI(uint256)": "c87b56dd",
    "totalSupply()": "18160ddd",
    "transfer(address,uint256)": "a9059cbb",
    "transferFrom(address,address,uint256)": "23b872dd",
    "transferOwnership(address)": "f2fde38b"
  },
  "id": 21
}