{"abi":[{"type":"function","name":"createContract","inputs":[{"name":"brandName","type":"string","internalType":"string"},{"name":"_productName","type":"string","internalType":"string"},{"name":"collectionName","type":"string","internalType":"string"},{"name":"collectionSymbol","type":"string","internalType":"string"},{"name":"warrantyPeriod","type":"uint256","internalType":"uint256"}],"outputs":[{"name":"","type":"address","internalType":"address"}],"stateMutability":"nonpayable"},{"type":"function","name":"getBrandInfo","inputs":[{"name":"_address","type":"address","internalType":"address"}],"outputs":[{"name":"","type":"tuple[]","internalType":"struct NFTFactory.Info[]","components":[{"name":"brandName","type":"string","internalType":"string"},{"name":"productName","type":"string","internalType":"string"},{"name":"creationTime","type":"uint256","internalType":"uint256"}]}],"stateMutability":"view"},{"type":"function","name":"getBrandOwnedCollections","inputs":[{"name":"_address","type":"address","internalType":"address"}],"outputs":[{"name":"","type":"address[]","internalType":"address[]"}],"stateMutability":"view"},{"type":"function","name":"getDeployedContracts","inputs":[],"outputs":[{"name":"","type":"address[]","internalType":"address[]"}],"stateMutability":"view"},{"type":"function","name":"s_brandDetails","inputs":[{"name":"","type":"address","internalType":"address"},{"name":"","type":"uint256","internalType":"uint256"}],"outputs":[{"name":"brandName","type":"string","internalType":"string"},{"name":"productName","type":"string","internalType":"string"},{"name":"creationTime","type":"uint256","internalType":"uint256"}],"stateMutability":"view"},{"type":"function","name":"s_brandOwnedCollections","inputs":[{"name":"","type":"address","internalType":"address"},{"name":"","type":"uint256","internalType":"uint256"}],"outputs":[{"name":"","type":"address","internalType":"address"}],"stateMutability":"view"},{"type":"function","name":"s_deployedContracts","inputs":[{"name":"","type":"uint256","internalType":"uint256"}],"outputs":[{"name":"","type":"address","internalType":"address"}],"stateMutability":"view"},{"type":"event","name":"ContractDeployed","inputs":[{"name":"newContract","type":"address","indexed":true,"internalType":"address"},{"name":"creator","type":"address","indexed":true,"internalType":"address"}],"anonymous":false}],"bytecode":{"object":"0x608060405234801561001057600080fd5b50613577806100206000396000f3fe60806040523480156200001157600080fd5b5060043610620000875760003560e01c80637a99b6a811620000625780637a99b6a814620000fd5780637e55f6821462000123578063863e0ea4146200014b578063aa9a068f146200016257600080fd5b80635d2d0b7a146200008c5780636487ccc114620000c05780637701fefa14620000e6575b600080fd5b620000a36200009d366004620007ef565b6200016c565b6040516001600160a01b0390911681526020015b60405180910390f35b620000d7620000d1366004620008ce565b620002d9565b604051620000b79190620008f3565b620000a3620000f736600462000942565b62000351565b620001146200010e366004620008ce565b6200038a565b604051620000b79190620009b7565b6200013a6200013436600462000942565b6200053f565b604051620000b79392919062000a50565b620000a36200015c36600462000a8a565b620006a7565b620000d7620006d2565b60008084843385604051620001819062000736565b62000190949392919062000aa4565b604051809103906000f080158015620001ad573d6000803e3d6000fd5b5060008054600180820183557f290decd9548b62a8d60345a988386fc84ba6bc95484008f6362f93160ef3e56390910180546001600160a01b0319166001600160a01b038516908117909155604080516060810182528c815260208082018d905242828401529285528383529084208054938401815584529220825193945091928392600390920290910190819062000247908262000b7b565b50602082015160018201906200025e908262000b7b565b506040918201516002918201553360008181526020928352838120805460018101825590825292812090920180546001600160a01b0319166001600160a01b03871690811790915592519092917f33c981baba081f8fd2c52ac6ad1ea95b6814b4376640f55689051f658472968891a3509695505050505050565b6001600160a01b0381166000908152600260209081526040918290208054835181840281018401909452808452606093928301828280156200034557602002820191906000526020600020905b81546001600160a01b0316815260019091019060200180831162000326575b50505050509050919050565b600260205281600052604060002081815481106200036e57600080fd5b6000918252602090912001546001600160a01b03169150829050565b6001600160a01b0381166000908152600160209081526040808320805482518185028101850190935280835260609492939192909184015b82821015620005345783829060005260206000209060030201604051806060016040529081600082018054620003f89062000aea565b80601f0160208091040260200160405190810160405280929190818152602001828054620004269062000aea565b8015620004775780601f106200044b5761010080835404028352916020019162000477565b820191906000526020600020905b8154815290600101906020018083116200045957829003601f168201915b50505050508152602001600182018054620004929062000aea565b80601f0160208091040260200160405190810160405280929190818152602001828054620004c09062000aea565b8015620005115780601f10620004e55761010080835404028352916020019162000511565b820191906000526020600020905b815481529060010190602001808311620004f357829003601f168201915b5050505050815260200160028201548152505081526020019060010190620003c2565b505050509050919050565b600160205281600052604060002081815481106200055c57600080fd5b906000526020600020906003020160009150915050806000018054620005829062000aea565b80601f0160208091040260200160405190810160405280929190818152602001828054620005b09062000aea565b8015620006015780601f10620005d55761010080835404028352916020019162000601565b820191906000526020600020905b815481529060010190602001808311620005e357829003601f168201915b505050505090806001018054620006189062000aea565b80601f0160208091040260200160405190810160405280929190818152602001828054620006469062000aea565b8015620006975780601f106200066b5761010080835404028352916020019162000697565b820191906000526020600020905b8154815290600101906020018083116200067957829003601f168201915b5050505050908060020154905083565b60008181548110620006b857600080fd5b6000918252602090912001546001600160a01b0316905081565b606060008054806020026020016040519081016040528092919081815260200182805480156200072c57602002820191906000526020600020905b81546001600160a01b031681526001909101906020018083116200070d575b5050505050905090565b6128f98062000c4983390190565b634e487b7160e01b600052604160045260246000fd5b600082601f8301126200076c57600080fd5b813567ffffffffffffffff808211156200078a576200078a62000744565b604051601f8301601f19908116603f01168101908282118183101715620007b557620007b562000744565b81604052838152866020858801011115620007cf57600080fd5b836020870160208301376000602085830101528094505050505092915050565b600080600080600060a086880312156200080857600080fd5b853567ffffffffffffffff808211156200082157600080fd5b6200082f89838a016200075a565b965060208801359150808211156200084657600080fd5b6200085489838a016200075a565b955060408801359150808211156200086b57600080fd5b6200087989838a016200075a565b945060608801359150808211156200089057600080fd5b506200089f888289016200075a565b95989497509295608001359392505050565b80356001600160a01b0381168114620008c957600080fd5b919050565b600060208284031215620008e157600080fd5b620008ec82620008b1565b9392505050565b6020808252825182820181905260009190848201906040850190845b81811015620009365783516001600160a01b0316835292840192918401916001016200090f565b50909695505050505050565b600080604083850312156200095657600080fd5b6200096183620008b1565b946020939093013593505050565b6000815180845260005b81811015620009975760208185018101518683018201520162000979565b506000602082860101526020601f19601f83011685010191505092915050565b600060208083018184528085518083526040925060408601915060408160051b87010184880160005b8381101562000a4257603f1989840301855281516060815181865262000a09828701826200096f565b915050888201518582038a87015262000a2382826200096f565b92890151958901959095525094870194925090860190600101620009e0565b509098975050505050505050565b60608152600062000a6560608301866200096f565b828103602084015262000a7981866200096f565b915050826040830152949350505050565b60006020828403121562000a9d57600080fd5b5035919050565b60808152600062000ab960808301876200096f565b828103602084015262000acd81876200096f565b6001600160a01b0395909516604084015250506060015292915050565b600181811c9082168062000aff57607f821691505b60208210810362000b2057634e487b7160e01b600052602260045260246000fd5b50919050565b601f82111562000b76576000816000526020600020601f850160051c8101602086101562000b515750805b601f850160051c820191505b8181101562000b725782815560010162000b5d565b5050505b505050565b815167ffffffffffffffff81111562000b985762000b9862000744565b62000bb08162000ba9845462000aea565b8462000b26565b602080601f83116001811462000be8576000841562000bcf5750858301515b600019600386901b1c1916600185901b17855562000b72565b600085815260208120601f198616915b8281101562000c195788860151825594840194600190910190840162000bf8565b508582101562000c385787850151600019600388901b60f8161c191681555b5050505050600190811b0190555056fe6080604052600e805460ff191660011790553480156200001e57600080fd5b50604051620028f9380380620028f983398101604081905262000041916200032c565b818484600062000052838262000450565b50600162000061828262000450565b5050506001600160a01b0381166200009357604051631e4fbdf760e01b81526000600482015260240160405180910390fd5b6200009e8162000114565b50620000ac60008362000166565b50620000da7ffd6aab976338b2900d6335246b1bf06c6f74506be74efaf01124b948d350dcea600062000219565b620001077f011954ff754dc313377d4d6e73952b9a1f24ceb7d799b72c6a16f48c38513b06600062000219565b600f55506200051c915050565b600b80546001600160a01b038381166001600160a01b0319831681179093556040519116919082907f8be0079c531659141344cd1fd0a4f28419497f9722a3daafe3b4186f6b6457e090600090a35050565b6000828152600c602090815260408083206001600160a01b038516845290915281205460ff166200020f576000838152600c602090815260408083206001600160a01b03861684529091529020805460ff19166001179055620001c63390565b6001600160a01b0316826001600160a01b0316847f2f8788117e7eff1d82e926ec794901d17c78024a50270940304540a733656f0d60405160405180910390a450600162000213565b5060005b92915050565b6000828152600c6020526040808220600101805490849055905190918391839186917fbd79b86ffe0ab8e8776151514217cd7cacd52c909f66475c3af44e129f0b00ff9190a4505050565b634e487b7160e01b600052604160045260246000fd5b600082601f8301126200028c57600080fd5b81516001600160401b0380821115620002a957620002a962000264565b604051601f8301601f19908116603f01168101908282118183101715620002d457620002d462000264565b8160405283815260209250866020858801011115620002f257600080fd5b600091505b83821015620003165785820183015181830184015290820190620002f7565b6000602085830101528094505050505092915050565b600080600080608085870312156200034357600080fd5b84516001600160401b03808211156200035b57600080fd5b62000369888389016200027a565b955060208701519150808211156200038057600080fd5b506200038f878288016200027a565b604087015190945090506001600160a01b0381168114620003af57600080fd5b6060959095015193969295505050565b600181811c90821680620003d457607f821691505b602082108103620003f557634e487b7160e01b600052602260045260246000fd5b50919050565b601f8211156200044b576000816000526020600020601f850160051c81016020861015620004265750805b601f850160051c820191505b81811015620004475782815560010162000432565b5050505b505050565b81516001600160401b038111156200046c576200046c62000264565b62000484816200047d8454620003bf565b84620003fb565b602080601f831160018114620004bc5760008415620004a35750858301515b600019600386901b1c1916600185901b17855562000447565b600085815260208120601f198616915b82811015620004ed57888601518255948401946001909101908401620004cc565b50858210156200050c5787850151600019600388901b60f8161c191681555b5050505050600190811b01905550565b6123cd806200052c6000396000f3fe608060405234801561001057600080fd5b50600436106102485760003560e01c806387a1d4181161013b578063ae997d70116100b8578063d0def5211161007c578063d0def52114610515578063d547741f14610528578063d5ae33e21461053b578063e985e9c51461055b578063f2fde38b1461056e57600080fd5b8063ae997d70146104b6578063b88d4fde146104c9578063c87b56dd146104dc578063ce53f6f8146104ef578063cf0273c31461050257600080fd5b8063a217fddf116100ff578063a217fddf14610462578063a22cb4651461046a578063a6f9dae11461047d578063a9059cbb14610490578063a918d46c146104a357600080fd5b806387a1d4181461040e5780638c4d5f7a146104235780638da5cb5b1461043657806391d148541461044757806395d89b411461045a57600080fd5b80632f745c59116101c95780636352211e1161018d5780636352211e146103b857806368a5dd76146103cb57806370a08231146103e0578063715018a6146103f3578063772cef47146103fb57600080fd5b80632f745c591461035957806336568abe1461036c57806342842e0e1461037f57806342966c68146103925780634f6ccce7146103a557600080fd5b806323b872dd1161021057806323b872dd146102dc578063248a9ca3146102ef5780632d06177a146103125780632d08f43c146103255780632f2ff15d1461034657600080fd5b806301ffc9a71461024d57806306fdde0314610275578063081812fc1461028a578063095ea7b3146102b557806318160ddd146102ca575b600080fd5b61026061025b366004611d7f565b610581565b60405190151581526020015b60405180910390f35b61027d610592565b60405161026c9190611dec565b61029d610298366004611dff565b610624565b6040516001600160a01b03909116815260200161026c565b6102c86102c3366004611e2f565b61064d565b005b6008545b60405190815260200161026c565b6102c86102ea366004611e59565b61065c565b6102ce6102fd366004611dff565b6000908152600c602052604090206001015490565b6102c8610320366004611e95565b6106ec565b610338610333366004611eb0565b61070f565b60405161026c929190611ed2565b6102c8610354366004611eeb565b6107d8565b6102ce610367366004611e2f565b6107fd565b6102c861037a366004611eeb565b610862565b6102c861038d366004611e59565b61089a565b6102c86103a0366004611dff565b6108b5565b6102ce6103b3366004611dff565b6108c1565b61029d6103c6366004611dff565b61091a565b6102ce60008051602061235883398151915281565b6102ce6103ee366004611e95565b610925565b6102c861096d565b610260610409366004611dff565b610981565b6102ce60008051602061237883398151915281565b6102c8610431366004611e95565b610a0a565b600b546001600160a01b031661029d565b610260610455366004611eeb565b610a80565b61027d610aab565b6102ce600081565b6102c8610478366004611f17565b610aba565b6102c861048b366004611e95565b610ac5565b6102c861049e366004611e2f565b610ad6565b6102c86104b1366004611dff565b610c08565b6102606104c4366004611e95565b610c15565b6102c86104d7366004611fdf565b610c54565b61027d6104ea366004611dff565b610c6b565b6102c86104fd36600461207b565b610c76565b6102c8610510366004611e95565b610d81565b6102ce6105233660046120c2565b610df7565b6102c8610536366004611eeb565b610eb3565b6102ce610549366004611dff565b600d6020526000908152604090205481565b6102606105693660046120fa565b610ed8565b6102c861057c366004611e95565b610f06565b600061058c82610f41565b92915050565b6060600080546105a190612124565b80601f01602080910402602001604051908101604052809291908181526020018280546105cd90612124565b801561061a5780601f106105ef5761010080835404028352916020019161061a565b820191906000526020600020905b8154815290600101906020018083116105fd57829003601f168201915b5050505050905090565b600061062f82610f66565b506000828152600460205260409020546001600160a01b031661058c565b610658828233610f9f565b5050565b6001600160a01b03821661068b57604051633250574960e11b8152600060048201526024015b60405180910390fd5b6000610698838333610fac565b9050836001600160a01b0316816001600160a01b0316146106e6576040516364283d7b60e01b81526001600160a01b0380861660048301526024820184905282166044820152606401610682565b50505050565b6106f4610fc1565b61070c600080516020612358833981519152826107d8565b50565b6010602052816000526040600020818154811061072b57600080fd5b90600052602060002090600202016000915091505080600001549080600101805461075590612124565b80601f016020809104026020016040519081016040528092919081815260200182805461078190612124565b80156107ce5780601f106107a3576101008083540402835291602001916107ce565b820191906000526020600020905b8154815290600101906020018083116107b157829003601f168201915b5050505050905082565b6000828152600c60205260409020600101546107f381610fee565b6106e68383610ff8565b600061080883610925565b82106108395760405163295f44f760e21b81526001600160a01b038416600482015260248101839052604401610682565b506001600160a01b03919091166000908152600660209081526040808320938352929052205490565b6001600160a01b038116331461088b5760405163334bd91960e11b815260040160405180910390fd5b610895828261108c565b505050565b61089583838360405180602001604052806000815250610c54565b61065860008233610fac565b60006108cc60085490565b82106108f55760405163295f44f760e21b81526000600482015260248101839052604401610682565b600882815481106109085761090861215e565b90600052602060002001549050919050565b600061058c82610f66565b60006001600160a01b038216610951576040516322718ad960e21b815260006004820152602401610682565b506001600160a01b031660009081526003602052604090205490565b610975610fc1565b61097f60006110f9565b565b600061098c8261114b565b6109ca5760405162461bcd60e51b815260206004820152600f60248201526e151bdad95b925108125b9d985b1a59608a1b6044820152606401610682565b6000828152600d6020526040812054600f54909142916109ea908461218a565b9050808210156109ff57506001949350505050565b506000949350505050565b610a2260008051602061235883398151915233610a80565b610a685760405162461bcd60e51b81526020600482015260176024820152762932b9ba3934b1ba32b2103a379026b0b730b3b2b9399760491b6044820152606401610682565b61070c60008051602061237883398151915282610eb3565b6000918252600c602090815260408084206001600160a01b0393909316845291905290205460ff1690565b6060600180546105a190612124565b61065833838361115e565b610acd610fc1565b61070c81610f06565b6000610ae18261091a565b9050610aec8261114b565b610b2f5760405162461bcd60e51b8152602060048201526014602482015273151bdad95b88191bd95cc81b9bdd08195e1a5cdd60621b6044820152606401610682565b610b3882610981565b610b805760405162461bcd60e51b8152602060048201526019602482015278165bdd5c8815d85c9c985b9d1e481a185cc8195e1c1a5c9959603a1b6044820152606401610682565b610b8b8133846111fd565b610bfd5760405162461bcd60e51b815260206004820152603960248201527f43616c6c6572206973206e6f7420746865206f776e6572206f7220617070726f60448201527f76656420746f207472616e736665722074686520746f6b656e000000000000006064820152608401610682565b610895338484611260565b610c10610fc1565b600f55565b6000610c1f610fc1565b610c3760008051602061235883398151915283610862565b61058c60008051602061235883398151915283610a80565b919050565b610c5f84848461065c565b6106e684848484611310565b606061058c82611439565b600080516020612378833981519152610c8e81610fee565b610c978361114b565b610cda5760405162461bcd60e51b8152602060048201526014602482015273151bdad95b88191bd95cc81b9bdd08195e1a5cdd60621b6044820152606401610682565b610ce383610981565b610d2b5760405162461bcd60e51b8152602060048201526019602482015278165bdd5c8815d85c9c985b9d1e481a185cc8195e1c1a5c9959603a1b6044820152606401610682565b6000838152601060209081526040808320815180830190925242825281830186815281546001818101845592865293909420825160029094020192835592519092820190610d7990826121e5565b505050505050565b610d9960008051602061235883398151915233610a80565b610ddf5760405162461bcd60e51b81526020600482015260176024820152762932b9ba3934b1ba32b2103a379026b0b730b3b2b9399760491b6044820152606401610682565b61070c600080516020612378833981519152826107d8565b6000610e1160008051602061237883398151915233610a80565b80610e2f5750610e2f60008051602061235883398151915233610a80565b80610e405750610e40600033610a80565b610e7a5760405162461bcd60e51b815260206004820152600b60248201526a2932b9ba3934b1ba32b21760a91b6044820152606401610682565b6000610e8560085490565b6000818152600d602052604090204290559050610ea28482611542565b610eac81846115a7565b9392505050565b6000828152600c6020526040902060010154610ece81610fee565b6106e6838361108c565b6001600160a01b03918216600090815260056020908152604080832093909416825291909152205460ff1690565b610f0e610fc1565b6001600160a01b038116610f3857604051631e4fbdf760e01b815260006004820152602401610682565b61070c816110f9565b60006001600160e01b03198216637965db0b60e01b148061058c575061058c826115f7565b6000818152600260205260408120546001600160a01b03168061058c57604051637e27328960e01b815260048101849052602401610682565b610895838383600161161c565b6000610fb9848484611722565b949350505050565b600b546001600160a01b0316331461097f5760405163118cdaa760e01b8152336004820152602401610682565b61070c81336117ef565b60006110048383610a80565b611084576000838152600c602090815260408083206001600160a01b03861684529091529020805460ff1916600117905561103c3390565b6001600160a01b0316826001600160a01b0316847f2f8788117e7eff1d82e926ec794901d17c78024a50270940304540a733656f0d60405160405180910390a450600161058c565b50600061058c565b60006110988383610a80565b15611084576000838152600c602090815260408083206001600160a01b0386168085529252808320805460ff1916905551339286917ff6391f5c32d9c69d2a47ea670b442974b53935d1edc7fd64eb21e047a839171b9190a450600161058c565b600b80546001600160a01b038381166001600160a01b0319831681179093556040519116919082907f8be0079c531659141344cd1fd0a4f28419497f9722a3daafe3b4186f6b6457e090600090a35050565b600061115660085490565b909110919050565b6001600160a01b03821661119057604051630b61174360e31b81526001600160a01b0383166004820152602401610682565b6001600160a01b03838116600081815260056020908152604080832094871680845294825291829020805460ff191686151590811790915591519182527f17307eab39ab6107e8899845ad3d59bd9653f200f220920489ca2b5937696c31910160405180910390a3505050565b60006001600160a01b03831615801590610fb95750826001600160a01b0316846001600160a01b0316148061123757506112378484610ed8565b80610fb95750506000908152600460205260409020546001600160a01b03908116911614919050565b6001600160a01b03821661128a57604051633250574960e11b815260006004820152602401610682565b600061129883836000610fac565b90506001600160a01b0381166112c457604051637e27328960e01b815260048101839052602401610682565b836001600160a01b0316816001600160a01b0316146106e6576040516364283d7b60e01b81526001600160a01b0380861660048301526024820184905282166044820152606401610682565b6001600160a01b0383163b156106e657604051630a85bd0160e11b81526001600160a01b0384169063150b7a02906113529033908890879087906004016122a5565b6020604051808303816000875af192505050801561138d575060408051601f3d908101601f1916820190925261138a918101906122e2565b60015b6113f6573d8080156113bb576040519150601f19603f3d011682016040523d82523d6000602084013e6113c0565b606091505b5080516000036113ee57604051633250574960e11b81526001600160a01b0385166004820152602401610682565b805181602001fd5b6001600160e01b03198116630a85bd0160e11b1461143257604051633250574960e11b81526001600160a01b0385166004820152602401610682565b5050505050565b606061144482610f66565b506000828152600a60205260408120805461145e90612124565b80601f016020809104026020016040519081016040528092919081815260200182805461148a90612124565b80156114d75780601f106114ac576101008083540402835291602001916114d7565b820191906000526020600020905b8154815290600101906020018083116114ba57829003601f168201915b5050505050905060006114f560408051602081019091526000815290565b90508051600003611507575092915050565b8151156115395780826040516020016115219291906122ff565b60405160208183030381529060405292505050919050565b610fb984611828565b6001600160a01b03821661156c57604051633250574960e11b815260006004820152602401610682565b600061157a83836000610fac565b90506001600160a01b03811615610895576040516339e3563760e11b815260006004820152602401610682565b6000828152600a602052604090206115bf82826121e5565b506040518281527ff8e1a15aba9398e019f0b49df1a4fde98ee17ae345cb5f6b5e2c27f5033e8ce79060200160405180910390a15050565b60006001600160e01b03198216632483248360e11b148061058c575061058c8261189c565b808061163057506001600160a01b03821615155b156116f257600061164084610f66565b90506001600160a01b0383161580159061166c5750826001600160a01b0316816001600160a01b031614155b801561167f575061167d8184610ed8565b155b156116a85760405163a9fbf51f60e01b81526001600160a01b0384166004820152602401610682565b81156116f05783856001600160a01b0316826001600160a01b03167f8c5be1e5ebec7d5bd14f71427d1e84f3dd0314c0f7b2291e5b200ac8c7c3b92560405160405180910390a45b505b5050600090815260046020526040902080546001600160a01b0319166001600160a01b0392909216919091179055565b6000806117308585856118c1565b90506001600160a01b03811661178d5761178884600880546000838152600960205260408120829055600182018355919091527ff3f7a9fe364faab93b216da50a3214154f22a0a2b415b23a84c8169e8b636ee30155565b6117b0565b846001600160a01b0316816001600160a01b0316146117b0576117b081856119ba565b6001600160a01b0385166117cc576117c784611a4b565b610fb9565b846001600160a01b0316816001600160a01b031614610fb957610fb98585611afa565b6117f98282610a80565b6106585760405163e2517d3f60e01b81526001600160a01b038216600482015260248101839052604401610682565b606061183382610f66565b50600061184b60408051602081019091526000815290565b9050600081511161186b5760405180602001604052806000815250610eac565b8061187584611b4a565b6040516020016118869291906122ff565b6040516020818303038152906040529392505050565b60006001600160e01b0319821663780e9d6360e01b148061058c575061058c82611bdd565b6000828152600260205260408120546001600160a01b03908116908316156118ee576118ee818486611c2d565b6001600160a01b0381161561192c5761190b60008560008061161c565b6001600160a01b038116600090815260036020526040902080546000190190555b6001600160a01b0385161561195b576001600160a01b0385166000908152600360205260409020805460010190555b60008481526002602052604080822080546001600160a01b0319166001600160a01b0389811691821790925591518793918516917fddf252ad1be2c89b69c2b068fc378daa952ba7f163c4a11628f55a4df523b3ef91a4949350505050565b60006119c583610925565b600083815260076020526040902054909150808214611a18576001600160a01b03841660009081526006602090815260408083208584528252808320548484528184208190558352600790915290208190555b5060009182526007602090815260408084208490556001600160a01b039094168352600681528383209183525290812055565b600854600090611a5d9060019061232e565b60008381526009602052604081205460088054939450909284908110611a8557611a8561215e565b906000526020600020015490508060088381548110611aa657611aa661215e565b6000918252602080832090910192909255828152600990915260408082208490558582528120556008805480611ade57611ade612341565b6001900381819060005260206000200160009055905550505050565b60006001611b0784610925565b611b11919061232e565b6001600160a01b039093166000908152600660209081526040808320868452825280832085905593825260079052919091209190915550565b60606000611b5783611c91565b600101905060008167ffffffffffffffff811115611b7757611b77611f53565b6040519080825280601f01601f191660200182016040528015611ba1576020820181803683370190505b5090508181016020015b600019016f181899199a1a9b1b9c1cb0b131b232b360811b600a86061a8153600a8504945084611bab57509392505050565b60006001600160e01b031982166380ac58cd60e01b1480611c0e57506001600160e01b03198216635b5e139f60e01b145b8061058c57506301ffc9a760e01b6001600160e01b031983161461058c565b611c388383836111fd565b610895576001600160a01b038316611c6657604051637e27328960e01b815260048101829052602401610682565b60405163177e802f60e01b81526001600160a01b038316600482015260248101829052604401610682565b60008072184f03e93ff9f4daa797ed6e38ed64bf6a1f0160401b8310611cd05772184f03e93ff9f4daa797ed6e38ed64bf6a1f0160401b830492506040015b6d04ee2d6d415b85acef81000000008310611cfc576d04ee2d6d415b85acef8100000000830492506020015b662386f26fc100008310611d1a57662386f26fc10000830492506010015b6305f5e1008310611d32576305f5e100830492506008015b6127108310611d4657612710830492506004015b60648310611d58576064830492506002015b600a831061058c5760010192915050565b6001600160e01b03198116811461070c57600080fd5b600060208284031215611d9157600080fd5b8135610eac81611d69565b60005b83811015611db7578181015183820152602001611d9f565b50506000910152565b60008151808452611dd8816020860160208601611d9c565b601f01601f19169290920160200192915050565b602081526000610eac6020830184611dc0565b600060208284031215611e1157600080fd5b5035919050565b80356001600160a01b0381168114610c4f57600080fd5b60008060408385031215611e4257600080fd5b611e4b83611e18565b946020939093013593505050565b600080600060608486031215611e6e57600080fd5b611e7784611e18565b9250611e8560208501611e18565b9150604084013590509250925092565b600060208284031215611ea757600080fd5b610eac82611e18565b60008060408385031215611ec357600080fd5b50508035926020909101359150565b828152604060208201526000610fb96040830184611dc0565b60008060408385031215611efe57600080fd5b82359150611f0e60208401611e18565b90509250929050565b60008060408385031215611f2a57600080fd5b611f3383611e18565b915060208301358015158114611f4857600080fd5b809150509250929050565b634e487b7160e01b600052604160045260246000fd5b600067ffffffffffffffff80841115611f8457611f84611f53565b604051601f8501601f19908116603f01168101908282118183101715611fac57611fac611f53565b81604052809350858152868686011115611fc557600080fd5b858560208301376000602087830101525050509392505050565b60008060008060808587031215611ff557600080fd5b611ffe85611e18565b935061200c60208601611e18565b925060408501359150606085013567ffffffffffffffff81111561202f57600080fd5b8501601f8101871361204057600080fd5b61204f87823560208401611f69565b91505092959194509250565b600082601f83011261206c57600080fd5b610eac83833560208501611f69565b6000806040838503121561208e57600080fd5b82359150602083013567ffffffffffffffff8111156120ac57600080fd5b6120b88582860161205b565b9150509250929050565b600080604083850312156120d557600080fd5b6120de83611e18565b9150602083013567ffffffffffffffff8111156120ac57600080fd5b6000806040838503121561210d57600080fd5b61211683611e18565b9150611f0e60208401611e18565b600181811c9082168061213857607f821691505b60208210810361215857634e487b7160e01b600052602260045260246000fd5b50919050565b634e487b7160e01b600052603260045260246000fd5b634e487b7160e01b600052601160045260246000fd5b8082018082111561058c5761058c612174565b601f821115610895576000816000526020600020601f850160051c810160208610156121c65750805b601f850160051c820191505b81811015610d79578281556001016121d2565b815167ffffffffffffffff8111156121ff576121ff611f53565b6122138161220d8454612124565b8461219d565b602080601f83116001811461224857600084156122305750858301515b600019600386901b1c1916600185901b178555610d79565b600085815260208120601f198616915b8281101561227757888601518255948401946001909101908401612258565b50858210156122955787850151600019600388901b60f8161c191681555b5050505050600190811b01905550565b6001600160a01b03858116825284166020820152604081018390526080606082018190526000906122d890830184611dc0565b9695505050505050565b6000602082840312156122f457600080fd5b8151610eac81611d69565b60008351612311818460208801611d9c565b835190830190612325818360208801611d9c565b01949350505050565b8181038181111561058c5761058c612174565b634e487b7160e01b600052603160045260246000fdfe011954ff754dc313377d4d6e73952b9a1f24ceb7d799b72c6a16f48c38513b06fd6aab976338b2900d6335246b1bf06c6f74506be74efaf01124b948d350dceaa26469706673582212200f24756779b69a272ba7dffe691ba141633376070343eb48cf9caee1675f80f464736f6c63430008160033a2646970667358221220f19cdacba174aa25632a42628f61d9fb851d1730cac73c650168f2bbe9b4bcbb64736f6c63430008160033","linkReferences":{}},"methodIdentifiers":{"createContract(string,string,string,string,uint256)":"5d2d0b7a","getBrandInfo(address)":"7a99b6a8","getBrandOwnedCollections(address)":"6487ccc1","getDeployedContracts()":"aa9a068f","s_brandDetails(address,uint256)":"7e55f682","s_brandOwnedCollections(address,uint256)":"7701fefa","s_deployedContracts(uint256)":"863e0ea4"},"id":39}